:020000040800F2
:10000000A8500020AD030008FD9E00086F92000874
:10001000F99E0008290E00089DED00080000000070
:1000200000000000000000000000000015AC000807
:10003000FD1600080000000005A4000829AC000817
:10004000C7030008C7030008C7030008C703000868
:10005000C7030008C7030008C7030008C703000858
:10006000C7030008C7030008C7030008651200089B
:10007000751200088512000895120008A5120008E4
:10008000B5120008C5120008C703000819170008B8
:10009000391700082917000849170008C703000886
:1000A000C7030008C7030008C7030008C703000808
:1000B000C7030008C7030008C7030008C7030008F8
:1000C000C7030008C7030008C7030008C7030008E8
:1000D000C7030008C7030008A9C40008B9C4000882
:1000E000FF160008C703000800000000C70300084F
:1000F000C7030008C7030008C7030008D51200089B
:10010000C7030008C7030008C7030008C7030008A7
:10011000C7030008C9B20008C7030008C7030008E6
:10012000C7030008C7030008C7030008C703000887
:10013000C7030008C7030008C7030008C703000877
:1001400000000000000000000000000000000000AF
:10015000C7030008C7030008C7030008C703000857
:10016000C7030008C7030008C7030008C703000847
:10017000C7030008019F0008C70300080000000033
:10018000C7030008C7030008F5B20008C70300084A
:10019000C7030008C7030008C7030008C703000817
:1001A000C7030008C7030008C703000800000000D9
:1001B000C7030008C7030008C7030008C7030008F7
:1001C000C7030008C703000800000000000000008B
:1001D0000000000000000000C7030008000000004D
:1001E000000000000000000000000000000000000F
:1001F0000000000000000000C7030008C70300085B
:10020000C7030008C703000800000000C703000878
:10021000C7030008C7030008C7030008C703000896
:10022000C703000800000000C7030008000000002A
:10023000C7030008C703000800000000C703000848
:10024000C7030008C7030008C7030008C703000866
:10025000C7030008C7030008C7030008C703000856
:10026000C7030008C7030008C7030008C703000846
:10027000C7030008C7030008C70300080000000008
:10028000C7030008C7030008C7030008C703000826
:1002900000000000C7030008C703000800000000BA
:1002A00000000000C7030008C7030008C7030008D8
:1002B00075C40008C7030008C703000859170008E1
:1002C00069170008C7030008C703000800F002F818
:1002D00000F05CF80AA090E8000C82448344AAF184
:1002E0000107DA4501D100F051F8AFF2090EBAE882
:1002F0000F0013F0010F18BFFB1A43F0010318475A
:10030000F0760100307701000A444FF0000C10F83D
:10031000013B13F0070408BF10F8014B1D1108BF83
:1003200010F8015B641E05D010F8016B641E01F823
:10033000016BF9D113F0080F1EBF10F8014BAD1C73
:100340000C1B09D16D1E58BF01F801CBFAD505E091
:1003500014F8016B01F8016B6D1EF9D59142D6D3EB
:10036000704700000023002400250026103A28BF13
:1003700078C1FBD8520728BF30C148BF0B60704717
:100380001FB516F039FF1FBD10B510BD00F0C8F93C
:100390001146FFF7F5FF13F00FF800F0E6F903B48C
:1003A000FFF7F2FF03BC00F0EBF9000009488047BB
:1003B00009480047FEE7FEE7FEE7FEE7FEE7FEE747
:1003C000FEE7FEE7FEE7FEE704480549054A064B5F
:1003D00070470000F1AC0008CD020008A8400024DE
:1003E000A8500020A8500024A810002053EA020CB6
:1003F00000F069802DE9F04B4FF00006002B1FBF85
:10040000B3FA83F503FA05F424FA05F65E4012BF49
:100410001643B2FA82F502FA05F4C5F120051EBFB3
:1004200022FA05FC44EA0C04203556EA044C4FEA53
:10043000144418BF641C4FF000084FF000099042AC
:1004400071EB030C39D3002919BFB1FA81F701FA16
:1004500007F6B0FA80F700FA07F6C7F120071EBFCB
:1004600020FA07FC46EA0C062037B6FBF4FCA7EBA3
:100470000507103F07F01F0BCBF120060CFA0BFB12
:100480002CFA06F644BFB3460026202FA4BF5E46D2
:100490004FF0000B5BEA060C08BF4FF0010B19EBA5
:1004A0000B09ABFB027C48EB0608C01B06FB02CC29
:1004B0000BFB03CC71EB0C01C1E70B460246414636
:1004C0004846BDE8F08B13B54FF000004FF0000137
:1004D000AFF30080BDE81C40704740EA010310B54F
:1004E0009B070FD1042A0DD310C808C9121F9C42C4
:1004F000F8D020BA19BA884201D9012010BD4FF0B6
:10050000FF3010BD1AB1D30703D0521C07E0002002
:1005100010BD10F8013B11F8014B1B1B07D110F85F
:10052000013B11F8014B1B1B01D1921EF1D1184662
:1005300010BD40EA0103024630B59B0710D14FF0D1
:10054000013400E008C208C91D1B9D4315EAC41F01
:10055000F8D013F0FF0102F8011B0DD01B0AF8E7D9
:1005600011F8013B002B02F8013B05D011F8013BCB
:10057000002B02F8013BF3D130BD10B5431C02E063
:1005800010F8011B71B18107FAD14FF0013202C896
:100590008C1A8C4314EAC211F9D0C01A0A0603D08F
:1005A000C01E10BDC01A10BD0A0401D0801E10BDAF
:1005B0000902FCD0401E10BD032A40F2308010F02A
:1005C000030C00F0158011F8013BBCF1020F6244EE
:1005D00098BF11F801CB00F8013B38BF11F8013B7F
:1005E000A2F1040298BF00F801CB38BF00F8013B2C
:1005F00011F0030300F02580083AC0F0088051F89C
:10060000043B083A51F804CBA0E80810F5E7121DA6
:100610005CBF51F8043B40F8043BAFF30080D207C5
:1006200024BF11F8013B11F801CB48BF11F8012B91
:1006300024BF00F8013B00F801CB48BF00F8012BB4
:10064000704710B5203AC0F00B80B1E81850203A3E
:10065000A0E81850B1E81850A0E81850BFF4F5AF62
:100660005FEA027C24BFB1E81850A0E8185044BFEC
:1006700018C918C0BDE810405FEA827C24BF51F859
:10068000043B40F8043B08BF7047D20728BF31F84D
:10069000023B48BF11F8012B28BF20F8023B48BF9E
:1006A00000F8012B70474FF0000200B51346944646
:1006B0009646203922BFA0E80C50A0E80C50B1F1BA
:1006C0002001BFF4F7AF090728BFA0E80C5048BFCE
:1006D0000CC05DF804EB890028BF40F8042B08BF6C
:1006E000704748BF20F8022B11F0804F18BF00F868
:1006F000012B704770477047704710B500F008F83D
:10070000006810BD10B5044600F002F8046010BD8A
:10071000004870474440002400487047444000248B
:100720007546FFF7F9FFAE4605006946534620F0CF
:100730000700854618B020B5FFF746FEBDE820400B
:100740004FF000064FF000074FF000084FF0000B8D
:1007500021F00701AC46ACE8C009ACE8C009ACE840
:10076000C009ACE8C0098D46704710B50446AFF328
:1007700000802046BDE81040FFF711BE7047000022
:1007800001491820ABBEFEE72600020010B59FED20
:10079000340B0121344808F05BFE9FED310B022140
:1007A000324808F055FE9FED320B0121324808F027
:1007B00015FF9FED322ADFED321A9FED321ADFED81
:1007C000310A9FED310A0021304809F0EFFD9FED1D
:1007D000302ADFED301A9FED2B1ADFED2F0A9FED47
:1007E0002F0A00212E4809F0E1FD9FED2E2ADFEDB2
:1007F000241A9FED241ADFED230AB2EE080A002125
:10080000294809F0D3FD9FED292ADFED1D1A9FED40
:100810001D1ADFED1C0AB1EE040A0021244809F07C
:10082000C5FD9FED242ADFED161A9FED161AF3EE93
:10083000040AB2EE040A00211F4809F0B7FD9FED3B
:100840001F2ADFED1F1A9FED0F1ADFED130AB1EE1D
:10085000040A00211B4809F0A9FD11F0C7FC10BDD6
:100860007B14AE47E17A743F083A0024683A0024CA
:10087000EAFF4199A1FE8F3FC83A002400001643C9
:1008800000401C46000000000000B4424038002434
:100890000000484300009644CDCCCC3D0000F0421F
:1008A0008C38002400606A46D83800240080BB449D
:1008B000703900240080D444243900240000C84248
:1008C00000C82F47BC39002410B500BF884890ED00
:1008D000000ADFED880AB4EEE00AF1EE10FA04D85F
:1008E0009FED840A80ED000A0DE0814890ED000A3A
:1008F000DFED810AB4EEE00AF1EE10FA03DB9FEDC2
:100900007E0A80ED000A00BF00BF794890ED010A21
:10091000DFED7A0AB4EEE00AF1EE10FA04D89FEDAA
:10092000770A80ED010A0DE0714890ED010ADFEDD4
:10093000740AB4EEE00AF1EE10FA03DB9FED700AE0
:1009400080ED010A00BF6F4890ED080ADFED6E0AE6
:10095000B4EEE00AF1EE10FA1EDD00BF644890ED3F
:10096000020ADFED6A0AB4EEE00AF1EE10FA04D8EA
:100970009FED660A80ED020A0DE05D4890ED020AE7
:10098000DFED630AB4EEE00AF1EE10FA03DB9FED4F
:10099000600A80ED020A1EE000BF554890ED020A91
:1009A000DFED5A0AB4EEE00AF1EE10FA04D89FED3A
:1009B000570A80ED020A0DE04D4890ED020ADFED86
:1009C000540AB4EEE00AF1EE10FA03DB9FED500A90
:1009D00080ED020A00BF00BF454890ED030ADFED3D
:1009E0004D0AB4EEE00AF1EE10FA04D89FED490A80
:1009F00080ED030A0DE03E4890ED030AF7EE000A91
:100A0000B4EEE00AF1EE10FA03DBB7EE000A80ED77
:100A1000030A00BF364890ED034AB7EEC44AB0EE71
:100A2000443B90ED024AB7EEC44AB0EE442B90ED41
:100A3000014AB7EEC44AB0EE441B90ED004AB7EE4F
:100A4000C44AB0EE440B11F023FA294890F825006F
:100A500070B1012802D002280FD104E09FED2E0BC7
:100A600014F01AFD0AE09FED2E0B14F015FD05E0C1
:100A70009FED2D0B14F010FD00BF00BF00BF1C4800
:100A800090ED041AB7EEC11AB0EE410B12F09EFBC6
:100A900009F0F4FF1648807F08B3012815D0032819
:100AA0001ED123480068032807D0224890ED000B90
:100AB000B7EEC00B204880ED000A1F4890ED000AF9
:100AC000B7EEC00A11F020FA0BE0094890ED061AC3
:100AD000B7EEC11AB0EE410B11F016FA01E000E0DA
:100AE00000BF00BF0248807F1149086010BD0000B0
:100AF000780C00208FC275BE33331340CDCC1CC0A0
:100B00009A99194074080020CDCCCCBD6666A6BF6A
:100B10009A99D93FEC51D8BF0000000000208C40CA
:100B20000000000000208CC0000000000000000059
:100B3000B005002498050024B405002470B50546CE
:100B40000C4600260DB1022C00D870BDA11E06482F
:100B50000288284600F088FF0646A01E2E54310A5F
:100B6000601E295400BFF0E7C400002410B5012224
:100B70001146024803F0CEFD10BD000000080258E7
:100B800010B500220121024803F0C4FD10BD000091
:100B9000000802587047000010B5012208210248E1
:100BA00003F0B8FD10BD00000008025810B5002287
:100BB0000821024803F0AEFD10BD000000080258F5
:100BC000704710B5044603E04FF47A7000F006F861
:100BD000201EA4F101018CB2F6D110BD70B5034600
:100BE00000BF00BF0020002200BF4FF0E026756963
:100BF000C3EB031674014FF0E026B16910E04FF02B
:100C0000E026B06988420BD0884202D20E1A3244E4
:100C100002E02E1A0E4432440146A24200D300E004
:100C2000EDE700BF70BD10B50024FFF7B3FFFFF77D
:100C3000C7FF10F0A5FE044310F036FF0443204622
:100C400010BD00002DE9FC4105460E461746002068
:100C500000900190FFF794FF922000F0CBF806225D
:100C60006946122000F0A6F8FFF780FF9DF801000A
:100C7000000200B29DF8001040EA010400EE104AA4
:100C8000B8EEC00ADFED490A20EE200A86ED000A20
:100C90009DF80300000200B29DF8021040EA010432
:100CA00000EE104AB8EEC00ADFED400A20EE200A3E
:100CB00086ED010A9DF80500000200B29DF80410BF
:100CC00040EA010400EE104AB8EEC00ADFED370A30
:100CD00020EE200A86ED020AFFF768FF0822694627
:100CE000002000F067F8FFF757FF9DF800000F287D
:100CF00035D19DF80300000200B29DF8021040EAD1
:100D0000010400EE104AB8EEC00ADFED290A20EE19
:100D1000200A85ED000A9DF80500000200B29DF84A
:100D2000041040EA010400EE104AB8EEC00ADFEDFC
:100D3000200A20EE200A85ED010A9DF80700000236
:100D400000B29DF8061040EA010400EE104AB8EE29
:100D5000C00ADFED170A20EE200A85ED020AFFF730
:100D60000FFFA22000F046F802226946222000F080
:100D700021F8FFF7FBFE9DF80000C0009DF8011070
:100D800040EA6114B4F5806F02DBA4F5006004B2A0
:100D900000EE104AF8EEC00AB4EE001AB3EE070AED
:100DA00000EE810A87ED000ABDE8FC81E7416B3A5D
:100DB00058A08B3A70B506460C46154646F08000A2
:100DC00000F018F806E0552000F014F82070641CBC
:100DD000681EC5B2002DF6D170BD70B504460D4633
:100DE00044F0800000F006F8552000F003F8287069
:100DF00070BD000001B582B04FF47A70012301AAE2
:100E000002A90090024806F0ABFD9DF804000EBD5B
:100E1000B007002470B505460C462846FFF7EAFFE8
:100E20002046FFF7E7FF70BD00BFFEE70346042B37
:100E300015D007DC7BB1012B0ED0022B0DD0032B7C
:100E400012D10BE0202B0BD0212B0AD0222B09D062
:100E5000232B09D107E008E007E006E005E004E005
:100E600003E002E001E000E000BF00BF00207047A7
:100E70000020704710B50022044905480BF0BFFD63
:100E8000044903480BF0ACFD002010BD6419002498
:100E90009C0400206411002470B504460D462146D0
:100EA000054812F0C1FB214604480BF099FD0348A8
:100EB0000BF062FD002070BD403B00249C0400202C
:100EC00010B503460C460021084610BD2DE9F0413F
:100ED00004460D4600260A48D0F8BC72D7F8140222
:100EE00010B10120BDE8F0812A46214604480BF0EC
:100EF00086FD03480BF036FE06463046F2E700005A
:100F00009C04002010B5B3EE030B01212D4808F01E
:100F100065FBB3EE030B04212B4808F05FFBB3EE37
:100F2000030B0321294808F059FBB3EE030B022100
:100F3000274808F053FB9FED272ADFED271A9FED86
:100F4000271ADFED260A9FED260A0021254809F021
:100F50002DFA9FED202ADFED201A9FED201ADFEDFC
:100F60001F0A9FED1F0A00211F4809F01FFA9FED7D
:100F7000192ADFED191A9FED191ADFED180A9FEDF6
:100F8000180A0021194809F011FA9FED122ADFED25
:100F9000121A9FED121ADFED110A9FED110A0021BE
:100FA000134809F003FAB2EE042ADFED0B1AB5EE8E
:100FB000001ADFED100A9FED100A00210F4809F01A
:100FC000F5F910BDE008002058090020D0090020E4
:100FD000480A002000606A4600401C460AD7233CAD
:100FE00000001C42C00A00200C0B0020580B0020FF
:100FF000A40B00206F12833A0000F042F00B002097
:1010000010B58548008885490988884203D18449FC
:10101000814808F031FA834800888049098888426D
:1010200003D17F497F4808F027FA7F4800887B4931
:101030000988884203D17A497B4808F01DFA7B4829
:10104000008876490988884203D17549774808F0B5
:1010500013FA774890ED000B764880ED000B74484A
:1010600090ED020B744880ED000B714890ED040B7D
:10107000724880ED000B90ED000BB0EEC00BB1EEAE
:10108000041BB4EEC10BF1EE10FA49D2694890EDA1
:10109000000BB5EEC00BF1EE10FA07D0664890EDEC
:1010A000000BB5EEC00BF1EE10FA39D1624890EDAD
:1010B000000BB5EEC00BF1EE10FA0AD15D4890EDD1
:1010C000000BB5EEC00BF1EE10FA02D0012058492A
:1010D0000876584890ED000BB5EEC00BF1EE10FA13
:1010E0000AD1554890ED000BB5EEC00BF1EE10FAA9
:1010F00002D002204E4908764F4890ED000BB5EE25
:10110000C00BF1EE10FA0ED14A4890ED000BB5EE8F
:10111000C00BF1EE10FA06D100204549087602E036
:101120000020434908764248007E01282DD14448DA
:10113000006858B1434890ED1A0B434880ED000B0E
:1011400000203F490860414809F00AF93D4890ED08
:101150001A0B3D4890ED001B30EE410B3C4880EDF2
:10116000000BDFED3C0A90ED001BB7EEC10B3748DA
:1011700008F0FEFFB7EEC00A304880ED000B9FED8F
:10118000360B2D4880ED000B02E001202C49086051
:101190002748007E02282DD13148006858B12948DF
:1011A00090ED1A0B284880ED000B00202C490860B8
:1011B000264809F0D5F8234890ED1A0B224890ED07
:1011C000001B30EE410B224880ED000BDFED210AC1
:1011D00090ED001BB7EEC10B1C4808F0C9FFB7EE3D
:1011E000C00A164880ED000B9FED1B0B114880EDE7
:1011F000000B02E001201A49086001200F4991ED1F
:10120000002B0D4991ED001B0A4991ED000B08F0F0
:1012100031FE14F00BF810BDE0080020B6000024E9
:10122000AE00002458090020D0090020480A002000
:10123000580C0020C0020020C8020020D00200206C
:10124000F002002088280024E8020020F00B002093
:10125000F802002000000000000000000000000074
:10126000F402002010B5024801F02AFA10BD000077
:101270000C0D002410B5024801F022FA10BD000048
:10128000840D002410B5024801F01AFA10BD0000C8
:10129000FC0D002410B5024801F012FA10BD000048
:1012A000740E002410B5024801F00AFA10BD0000C7
:1012B000A40B002410B5024801F002FA10BD000092
:1012C0001C0C002410B5024801F0FAF910BD000012
:1012D000EC0E002410B5024801F0F2F910BD000038
:1012E000940C00240146374A0868904249D0354A98
:1012F00018320868904244D0324A3032086890422E
:101300003FD0304A4832086890423AD02D4A603285
:101310000868904235D02B4A78320868904230D025
:10132000284A9032086890422BD0264AA832086892
:10133000904226D0244A0868904222D0224A18328D
:10134000086890421DD0204A30320868904218D078
:101350001D4A48320868904213D01B4A6032086820
:1013600090420ED0184A78320868904209D0164A46
:1013700090320868904204D0134AA832086890421C
:1013800001D1012000E00020B0B10A78103A182302
:10139000B2FBF3F000F007020C4B9A5CCA6503281D
:1013A00005D90A686FF30902121D8A6503E00A680D
:1013B0006FF309028A6503E0086820F0FF00886582
:1013C000886D70471000024010040240F27201085C
:1013D00010B502682B4C0368A34222D0294C143468
:1013E0000368A3421DD0274C28340368A34218D0B9
:1013F000244C3C340368A34213D0224C503403687D
:10140000A3420ED01F4C64340368A34209D01D4C84
:1014100078340368A34204D01A4C8C340368A34286
:1014200001D1012300E000238BB10378083B142491
:10143000B3FBF4F1144B03EB81030366124B8033CF
:10144000436601F01F040123A340836618E003787C
:10145000103B1824B3FBF4F10C4B9A4204D80B4B0D
:10146000A83B9A4200D30831094B03EB8103036682
:10147000074B8033436601F01F040123A3408366BA
:1014800010BD00000854025800580258B804024029
:10149000000802400179A9B3082940D8204B02680E
:1014A0009A4222D01E4B143302689A421DD01C4B24
:1014B000283302689A4218D0194B3C3302689A428A
:1014C00013D0174B503302689A420ED0144B64333A
:1014D00002689A4209D0124B783302689A4204D0CB
:1014E0000F4B8C3302689A4201D1012200E00022A6
:1014F0004AB14A1E0B4B03EB8202C266094A4032D4
:10150000026708E00BE04A1E074B03EB8202C2664B
:10151000054A403202674A1E0123934043677047E1
:1015200008540258005902580009024001460020A0
:101530008A69D2B98A6A32B1012A0DD0022A03D04F
:10154000032A10D10EE000BFCA6A02F08072B2F125
:10155000807F00D1012007E0CA6AB2F1C07F00D1CC
:10156000012001E000E000BF36E08A69B2F5005FCB
:101570001BD18A6A32B1012A07D0022A03D0032A7A
:1015800011D10AE000BF01200EE0CA6A02F08072A9
:10159000B2F1807F00D1012006E0CA6AB2F1C07FBB
:1015A00000D1012000E000BF16E08A6A32B1012AB2
:1015B00005D0022A04D0032A0CD103E000BF00BFEB
:1015C000012008E0CA6A02F08072B2F1807F00D187
:1015D000012000E000BF00BF7047000008B50848C8
:1015E00040680090074900980968884204D206487C
:1015F0000068401C0449086002490098086008BD62
:10160000001000E098000020940000200C49486879
:10161000F0EE400A00BF0A494968091A01EE101AA3
:10162000F8EE411A074991ED001AB8EE411A20EE82
:10163000811AF4EEC11AF1EE10FAECD370470000F3
:10164000001000E08800002010B52DED028B82B064
:1016500004460E484068019020680199081A00EE7F
:10166000100AF8EE400A0A4890ED000AB8EE400A67
:1016700080EE801AB0EE418A01982060FFF7AEFF3D
:10168000B0EE480A02B0BDEC028B10BD001000E0C5
:10169000880000201249096841F08071104A1160E9
:1016A0000021104A51601146096841F001011160A2
:1016B0000D4941430D4A1160114609684FF47A7291
:1016C000B1FBF2F10A4A116008490968064AB1FB08
:1016D000F2F1084A11600021074A116070470000CA
:1016E000FCED00E0001000E040420F008800002008
:1016F0008C0000209000002094000020704710B55E
:101700004FF4806002F000FF4FF4805002F0FCFEC6
:1017100010BD72B600BFFEE710B5024802F02AFA0B
:1017200010BD0000D005002410B5024802F022FAD6
:1017300010BD0000D005002410B5024802F01AFACE
:1017400010BD00007006002410B5024802F012FA25
:1017500010BD00007006002410B5024802F00AFA1D
:1017600010BD00001007002410B5024802F002FA74
:1017700010BD00001007002410B501464A6B086830
:10178000D0F884004FF6FC74A04340EA82000C6855
:10179000C4F884000868D0F8840020F47F04088F1F
:1017A00044EA00400C68C4F88400886B024408686E
:1017B000D0F888004FF6FC74A04340EA82000C6821
:1017C000C4F888000868D0F8880020F4FE04888FE8
:1017D00044EA00400C68C4F88800C86B02EB400281
:1017E0000868D0F8A0004FF6FC74A04340EA8200DD
:1017F0000C68C4F8A0000868D0F8A00020F4FE042B
:101800004020405A44EA00400C68C4F8A000D1E9E6
:10181000104004FB00220868D0F8B0004FF6FC74BA
:10182000A04340EA82000C68C4F8B0000868D0F811
:10183000B00020F4FE04B1F8480044EA00400C680F
:10184000C4F8B000D1E9124004FB00220868D0F8C7
:10185000AC004FF6FC74A04340EA82000C68C4F868
:10186000AC00D1E9144004FB00220868D0F8F00075
:101870004FF6FC74A04340EA82000C68C4F8F00004
:101880000868D0F8F00020F47C14B1F8580044EA5D
:1018900000400C68C4F8F000886D02EB4002086854
:1018A000D0F8C0004FF6FC74A04340EA82000C68F8
:1018B000C4F8C0000868D0F8C00020F47C14B1F867
:1018C0005C0044EA00400C68C4F8C0000868D0F826
:1018D000C00020F07C5491F8600044EA00600C687D
:1018E000C4F8C0002A4C486B04EB8000C866CC6E7C
:1018F000886B04EB80040C670C6FC86B04EBC004AE
:101900004C67D1E9100460434C6F04EB80048C6792
:10191000D1E9120460438C6F04EB8004CC67D1E9F9
:1019200014046043CC6F04EB80048020445044587E
:10193000886D04EBC004842044508C6EC86D6043F5
:101940008424645804EB8004882044508C6E086E14
:1019500060438824645804EB80049020445040582D
:101960000C4CA04209D99831486840F020004860EA
:10197000032001F89809012010BDCB6E02E0002081
:1019800018601B1D902040589842F8D80020F3E7BB
:1019900000AC0040FCD300402DE9F0410546144660
:1019A0001E46D1F804C0BCF1000F0AD1D1F810C016
:1019B000D1F808804CEA080CB1F800804CEA884362
:1019C0000BE0D1F810C04CF0804CD1F808804CEA04
:1019D000080CD1F800804CEA080391F82080D1F877
:1019E0001CC04CEA086CD1F818804CEA080CD1F8FD
:1019F00014804CEA080CB1F80C804CEA0847D5F882
:101A000068C00CFB06FCD5F8848008EB8C021360E0
:101A1000121D1760121D002019E000F1030C14F8CC
:101A20000CC04FEA0C6800F1020C14F80CC048EA34
:101A30000C4800F1010C14F80CC048EA0C2C14F806
:101A400000804CEA080CC2F800C0121D001DDFF82F
:101A50001480D1F80CC018F80CC08445DDD8BDE85E
:101A6000F0810000FC72010830B5034613B94FF64F
:101A7000FF7030BD09E013F8014B82EA0400C0B2E8
:101A8000054D35F8100080EA2222081EA1F101015F
:101A9000F1D11046EDE700009274010830B503461D
:101AA00005E013F8010B80EA02040448025D081EF9
:101AB000A1F10105A9B2F4D1104630BD917301081E
:101AC00010B504462078617840EA0120C0F30A008E
:101AD000B54908806078C008A17840EA4110C0F399
:101AE0000A00B1494880A0788009E17840EA810085
:101AF000217940EA8120C0F30A00AB49888020792F
:101B00004008617940EAC110C0F30A00A649C880C4
:101B10006079C0F301108872607900118108A248D1
:101B2000C172A079E17940EA012000B29E49C881E2
:101B3000207A617A40EA012001B29B480182A07AB2
:101B4000E17A40EA012001B297484182217B017588
:101B5000617B4175A07BE17B40EA01209249C8820C
:101B6000207C617C40EA012000B28F490881207C02
:101B7000617C40EA0120C0F30A00A0F580608A4938
:101B8000888108460088A0F5806000B20880084679
:101B90004088A0F5806000B2488008468088A0F5A3
:101BA000806000B288800846C088A0F5806000B2DE
:101BB000C88008460089A0F5806000B20881A07B3B
:101BC00000F0010079490880A07B00F0020078490C
:101BD0000880A07B00F0040076490880A07B00F01C
:101BE000080075490880A07B00F040007349088018
:101BF000A07B00F0800072490880A07B00F01000FC
:101C000070490880A07B00F020006F49088066487A
:101C1000007D6E4908706448407D6D4908706248D7
:101C2000C08A00F480706B4908805F48C08A00F465
:101C30000070694908805C48C08A00F48060674988
:101C400008805948C08A00F40060654908805648F9
:101C5000C08A00F48050634908805348C08A00F469
:101C60000050614908805048C08A00F480405F49B4
:101C700008804D48C08A00F400405D4908804B4808
:101C8000008810B10120494908804948008810B1F6
:101C90000120474908804748008810B10120454984
:101CA00008804548008810B1012043490880434816
:101CB000008810B10120414908804148008810B1D6
:101CC00001203F4908803F48008810B101203D496C
:101CD00008803D48008810B101203B4908803B48FE
:101CE000007810B10120394908703948007810B1E6
:101CF0000120374908703748008810B10120354964
:101D000008803548008810B10120334908803348E5
:101D1000008810B10120314908803148008810B195
:101D200001202F4908802F48008810B101202D493B
:101D300008802D48008810B101202B4908802B48CD
:101D4000008810B10120294908802948008810B175
:101D500001202749088027480088264948801248E2
:101D6000C08A08802449234814F038FB23492148BD
:101D700014F034FB22491F4814F030FB21491D4860
:101D800014F02CFB20491B4814F028FB1F4919486C
:101D900014F024FB1E49174814F020FB1D49154878
:101DA00014F01CFB10BD0000C8080020FA01002040
:101DB000FC010020FE0100200002002002020020A1
:101DC0000402002006020020080200201A0200205F
:101DD0001B0200200A0200200C0200200E0200203C
:101DE000100200201202002014020020160200201F
:101DF000180200201C020020200200202C020020DB
:101E000038020020440200205C0200205002002022
:101E1000680200207402002070B50A480468001DA2
:101E20000568001D0668344454B10822064920465E
:101E300007F03EFA042204491031284607F038FA28
:101E400070BD000000E8F11F4A0000202DE9F041BC
:101E5000044602F065FC804614B90120BDE8F0811B
:101E600094F83500022808D08020606500BF00206B
:101E700084F8340000BF0120F0E7FE492068884262
:101E800049D0FC4918312068884244D0F9493031A2
:101E9000206888423FD0F7494831206888423AD0CC
:101EA000F44960312068884235D0F24978312068A1
:101EB000884230D0EF499031206888422BD0ED49DC
:101EC000A8312068884226D0EB492068884222D079
:101ED000E9491831206888421DD0E749303120682F
:101EE000884218D0E44948312068884213D0E2493A
:101EF0006031206888420ED0DF49783120688842FE
:101F000009D0DD4990312068884204D0DA49A831EF
:101F10002068884201D1012000E0002068B12068DB
:101F2000006820F01E00216808602068406920F0E9
:101F3000800021684861256806E02068006820F07C
:101F40000E00216808602568CA492068884270D060
:101F5000C8491831206888426BD0C64930312068A2
:101F6000884266D0C34948312068884261D0C1495F
:101F70006031206888425CD0BE4978312068884250
:101F800057D0BC4990312068884252D0B949A83115
:101F9000206888424DD0B8492068884249D0B64967
:101FA00018312068884244D0B349303120688842D3
:101FB0003FD0B1494831206888423AD0AE496031BB
:101FC0002068884235D0AC4978312068884230D0CA
:101FD000A9499031206888422BD0A749A8312068B0
:101FE000884226D0A5492068884222D0A3491431CE
:101FF000206888421DD0A14928312068884218D025
:102000009E493C312068884213D09C495031206859
:1020100088420ED0994964312068884209D0974996
:1020200078312068884204D094498C3120688842F5
:1020300001D1012000E0002028B1206E006820F4CA
:102040008070216E08608B492068884249D0894998
:1020500018312068884244D086493031206888424F
:102060003FD084494831206888423AD08149603164
:102070002068884235D07F4978312068884230D046
:102080007C499031206888422BD07A49A831206859
:10209000884226D078492068884222D07649183173
:1020A000206888421DD0744930312068884218D099
:1020B000714948312068884213D06F4960312068E7
:1020C00088420ED06C4978312068884209D06A492C
:1020D00090312068884204D06749A831206888423E
:1020E00006D12068006820F001002168086005E042
:1020F0002068006820F001002168086011E002F00B
:102100000FFBA0EB080005280BD9202060650320F9
:1021100084F8350000BF002084F8340000BF01209F
:102120009CE6286800F001000028E8D151492068A9
:10213000884249D04F4918312068884244D04D49DF
:102140003031206888423FD04A494831206888426F
:102150003AD0484960312068884235D045497831C5
:102160002068884230D043499031206888422BD083
:102170004049A8312068884226D03F4920688842DB
:1021800022D03D491831206888421DD03A4930316B
:102190002068884218D0384948312068884213D0D6
:1021A00035496031206888420ED033497831206843
:1021B000884209D0304990312068884204D02E49A5
:1021C000A8312068884201D1012000E0002040B100
:1021D000A66D94F85C0000F01F013F208840B060BD
:1021E00007E0A76D94F85C0000F01F010120884013
:1021F000786020492068884276D01E4918312068CE
:10220000884271D01B493031206888426CD019490E
:1022100048312068884267D016496031206888427A
:1022200062D014497831206888425DD011499031DC
:102230002068884258D00F49A8312068884253D07E
:102240000D49206888424FD00B49183120688842D8
:102250004AD0094930312068884245D00649483182
:102260002068884240D004496031206888423BD0D1
:10227000014905E0100002401004024008540258D1
:102280007831206888422FD02549206888422BD099
:10229000234918312068884226D022492068884284
:1022A00022D020491431206888421DD01D49283190
:1022B0002068884218D01B493C312068884213D0DE
:1022C00018495031206888420ED016496431206880
:1022D000884209D0134978312068884204D01149D6
:1022E0008C312068884201D1012000E0002068B1D3
:1022F000D4E919104860E06E40B1E06E006820F447
:102300008070E16E0860D4E91C104860012084F8F8
:10231000350000BF002084F8340000BF00BF9DE5F9
:10232000A00402400854025870B504460CB90120BC
:1023300070BD94F83500022803D08020606501202C
:10234000F6E7DC492068884249D0DA49183120682C
:10235000884244D0D7493031206888423FD0D5499F
:102360004831206888423AD0D2496031206888429A
:1023700035D0D04978312068884230D0CD4990316D
:10238000206888422BD0CB49A8312068884226D0CB
:10239000C9492068884222D0C7491831206888423C
:1023A0001DD0C54930312068884218D0C249483113
:1023B0002068884213D0C0496031206888420ED01E
:1023C000BD4978312068884209D0BB4990312068E6
:1023D000884204D0B849A8312068884201D1012040
:1023E00000E00020F0B3042084F83500B1492068F3
:1023F00088424BD0AF4918312068884246D0AD4959
:1024000030312068884241D0AA494831206888424A
:102410003CD0A84960312068884237D0A54978313E
:102420002068884232D0A3499031206888422DD05C
:10243000A049A8312068884228D09F492068884256
:1024400024D09D491831206888421FD09A493031E4
:10245000206888421AD0984948312068884215D0AF
:10246000954900E020E06031206888420ED0924912
:1024700078312068884209D08F499031206888429D
:1024800004D08D49A8312068884206D120680068B0
:1024900020F001002168086009E12068006820F050
:1024A00001002168086002E12068006820F00E0049
:1024B000216808607F492068884249D07D491831E9
:1024C0002068884244D07B493031206888423FD020
:1024D00078494831206888423AD07649603120688E
:1024E000884235D0734978312068884230D07149AC
:1024F0009031206888422BD06E49A83120688842EC
:1025000026D06D492068884222D06B491831206856
:1025100088421DD0684930312068884218D0664909
:1025200048312068884213D063496031206888426E
:102530000ED0614978312068884209D05E499031D7
:102540002068884204D05C49A8312068884206D1BE
:102550002068006820F001002168086005E020681C
:10256000006820F001002168086052492068884214
:1025700070D050491831206888426BD04D493031B5
:102580002068884266D04B4948312068884261D033
:1025900048496031206888425CD0464978312068DB
:1025A000884257D0434990312068884252D04149EF
:1025B000A831206888424DD03F492068884249D0E0
:1025C0003D4918312068884244D03B493031206869
:1025D00088423FD038494831206888423AD036494D
:1025E00060312068884235D033497831206888428C
:1025F00030D031499031206888422BD02E49A83103
:102600002068884226D02D492068884222D02B4954
:102610001431206888421DD028492831206888421A
:1026200018D026493C312068884213D023495031C4
:10263000206888420ED0214964312068884209D040
:102640001E4978312068884204D01C498C312068AA
:10265000884201D1012000E00020D8B1206E00683E
:1026600020F48070216E0860A56D94F85C0000F085
:102670001F01012088406860D4E919104860E06EAD
:1026800040B1E06E006820F48070E16E0860D4E92B
:102690001C104860012084F8350000BF002084F839
:1026A000340000BF206D10B12046216D8847002006
:1026B0003EE6000010000240100402400854025898
:1026C0002DE9F84F044600200090FE4800684FF4C2
:1026D0001651B0FBF1FAA66DD4F858803768D8F8D7
:1026E0000090F9492068884249D0F749183120689C
:1026F000884244D0F4493031206888423FD0F249C2
:102700004831206888423AD0EF49603120688842D9
:1027100035D0ED4978312068884230D0EA4990318F
:10272000206888422BD0E849A8312068884226D00A
:10273000E6492068884222D0E4491831206888425E
:102740001DD0E24930312068884218D0DF49483135
:102750002068884213D0DD496031206888420ED05D
:10276000DA4978312068884209D0D8499031206808
:10277000884204D0D549A8312068884201D101207F
:1027800000E0002000287DD094F85C0000F01F01DC
:10279000082088403840002868D0CB49206888420B
:1027A00049D0C94918312068884244D0C6493031DF
:1027B000206888423FD0C4494831206888423AD0D6
:1027C000C14960312068884235D0BF4978312068DE
:1027D000884230D0BC499031206888422BD0BA4919
:1027E000A8312068884226D0B8492068884222D083
:1027F000B6491831206888421DD0B449303120686C
:10280000884218D0B14948312068884213D0AF4976
:102810006031206888420ED0AC4978312068884207
:1028200009D0AA4990312068884204D0A749A8312C
:102830002068884204D12068006800F0040003E0AA
:102840002068006800F0080080B12068006820F06F
:1028500004002168086094F85C0000F01F01082063
:102860008840B060606D40F00100606594F85C00E5
:1028700000F01F01012088403840E8B392492068E9
:10288000884200E0B7E24BD08F4918312068884277
:1028900046D08D4930312068884241D08A4948313C
:1028A000206888423CD0884960312068884237D00F
:1028B000854978312068884232D083499031206838
:1028C00088422DD08049A8312068884228D07F498D
:1028D0002068884224D07D491831206888421FD062
:1028E0007A493031206888421AD0784948312068C6
:1028F000884215D0754900E026E0603120688842A2
:102900000ED0724978312068884209D06F499031E1
:102910002068884204D06D49A8312068884204D1DB
:102920002068406900F0800002E020680068002014
:1029300050B194F85C0000F01F0101208840B060A5
:10294000606D40F00200606594F85C0000F01F01CB
:10295000042088403840E8B35B49206888424BD067
:10296000594918312068884246D05749303120688B
:10297000884241D054494831206888423CD052496D
:1029800060312068884237D04F49783120688842CA
:1029900032D04D499031206888422DD04A49A83123
:1029A0002068884228D049492068884224D0474975
:1029B0001831206888421FD044493031206888424D
:1029C0001AD0424948312068884215D03F496031C9
:1029D000206800E024E088420ED03C49783120682D
:1029E000884209D0394990312068884204D037495B
:1029F000A8312068884204D12068006800F00200F5
:102A000002E020680068002050B194F85C0000F0FB
:102A10001F0104208840B060606D40F004006065D4
:102A200094F85C0000F01F01102088403840E8B3A3
:102A300025492068884251D02349183120688842AE
:102A40004CD0214930312068884247D01E49483156
:102A50002068884242D01C496031206888423DD0BD
:102A6000194978312068884238D017499031206858
:102A7000884233D01449A831206888422ED01349A7
:102A8000206888422AD0114918312068884225D010
:102A90000E4930312068884220D00C4948312068E6
:102AA00088421BD009496031206800E04DE088422F
:102AB00014D006497831206888420FD003499031FC
:102AC000206805E01C0000241000024010040240B1
:102AD000884203D0FE492068884204D120680068FB
:102AE00000F0080003E02068006800F0040060B314
:102AF00094F85C0000F01F0110208840B06020684E
:102B0000006800F4802080B12068006800F4002094
:102B100028B9206CC8B12046216C884715E0A06C0C
:102B200098B12046A16C88470FE02068006800F447
:102B3000807028B92068006820F0080021680860CB
:102B4000206C10B12046216C884794F85C0000F09E
:102B50001F0120208840384000287DD0DD492068B2
:102B6000884249D0DB4918312068884244D0D9498D
:102B70003031206888423FD0D649483120688842A9
:102B80003AD0D44960312068884235D0D149783173
:102B90002068884230D0CF499031206888422BD0BD
:102BA000CC49A8312068884226D0C949A839206874
:102BB000884221D0C6499039206888421CD0C44937
:102BC00078392068884217D0C14960392068884226
:102BD00012D0BF494839206888420DD0BC493039ED
:102BE0002068884208D0BA4918392068884203D042
:102BF000B7492068884204D12068006800F01000BE
:102C000003E02068006800F0020028B394F85C003C
:102C100000F01F0120208840B06094F8350004289F
:102C20002DD12068006820F0160021680860206817
:102C3000406920F0800021684861206C08B9A06CD0
:102C400028B12068006820F008002168086094F826
:102C50005C0000F01F0100E03FE03F208840B060D2
:102C6000012084F8350000BF002084F8340000BF44
:102C7000206D10B12046216D8847BDE8F88F20688F
:102C8000006800F4802080B12068006800F4002013
:102C900028B9606C08B32046616C88471DE0E06B82
:102CA000D8B12046E16B884717E02068006800F43F
:102CB000807068B92068006820F010002168086002
:102CC000012084F8350000BF002084F8340000BFE4
:102CD000E06B10B12046E16B8847606D00287AD028
:102CE000606D00F00100E8B3042084F835007949F4
:102CF000206888424BD0774918312068884246D0F6
:102D0000744930312068884241D072494831206886
:102D100088423CD06F4960312068884237D06D4985
:102D200078312068884232D06A49903120688842E0
:102D30002DD06849A8312068884228D06449A83934
:102D40002068884223D062499039206888421ED08A
:102D50005F4978392068884219D05D496039206818
:102D6000884200E040E012D0594948392068884242
:102D70000DD0574930392068884208D05449183955
:102D80002068884203D052492068884206D12068D2
:102D9000006820F001002168086005E020680068F4
:102DA00020F001002168086000BF0098401C0090DE
:102DB000504500D905E02068006800F001000028B7
:102DC000F3D100BF2068006800F0010020B10320AB
:102DD00084F8350003E00DE0012084F8350000BFE1
:102DE000002084F8340000BFE06C002802D02046A8
:102DF000E16C8847D9E138492068884222D03649B9
:102E00001431206888421DD0334928312068884217
:102E100018D031493C312068884213D02E495031B6
:102E2000206888420ED02C4964312068884209D03D
:102E3000294978312068884204D027498C3120689C
:102E4000884201D1012000E000200028D2D0206873
:102E5000056894F85C0000F01F010420884000EA37
:102E60000900D8B305F00400C0B394F85C0000F08A
:102E70001F0104208840C8F8040005F4004080B118
:102E800005F4803030B9A06C0028B3D02046A16C86
:102E900088478AE1206C0028ACD02046216C884706
:102EA00083E105F02000E8BB0A492068884253D03E
:102EB00008491831206888424ED0064930312068D0
:102EC000884249D0034948312068884244D006E00E
:102ED000B804024010000240085402584FE0B449C0
:102EE00060312068884237D0B14978312068884203
:102EF00032D0AF499031206888422DD0AC49A831FA
:102F00002068884228D0AB492068884224D0A9494B
:102F10001831206888421FD0A64930312068884285
:102F20001AD000E025E0A34948312068884213D038
:102F3000A0496031206888420ED09E4978312068CF
:102F4000884209D09B4990312068884204D0994931
:102F5000A8312068884206D12068006820F0080067
:102F60002168086005E02068006820F004002168FE
:102F70000860206C10B32046216C884715E194F856
:102F80005C0000F01F010220884000EA0900E8B35D
:102F900005F00200D0B394F85C0000F01F0102209D
:102FA0008840C8F8040005F4004070B105F4803092
:102FB00028B9606C10B12046616C8847F5E0E06B81
:102FC000F0B32046E16B8847EFE005F02000C0BB7E
:102FD0007749206888424ED0754918312068884268
:102FE00049D0734930312068884244D07049483113
:102FF000206888423FD06E496031206888423AD0CC
:103000006B4978312068884235D000E04EE068494D
:103010009031206888422ED06549A83120688842C6
:1030200029D064492068884225D062491831206837
:10303000884220D05F493031206888421BD001E0AF
:103040006EE02DE05B4948312068884213D0594931
:103050006031206888420ED0564978312068884215
:1030600009D0544990312068884204D05149A83190
:103070002068884206D12068006820F0140021688A
:10308000086005E02068006820F00A0021680860F8
:10309000012084F8350000BF002084F8340000BF10
:1030A000E06BE8B32046E16B88477EE094F85C0073
:1030B00000F01F010820884000EA090080B305F0F5
:1030C000080068B33A49206888424BD03849183123
:1030D0002068884246D0364930312068884241D045
:1030E00033494831206888423CD0314960312068FA
:1030F000884237D02E4978312068884232D02C4916
:103100009031206888422DD02949A8312068884212
:1031100028D028492068884224D02649183100E068
:1031200043E0206888421DD022493031206888421F
:1031300018D0204948312068884213D01D49603199
:10314000206888420ED01B4978312068884209D017
:10315000184990312068884204D01649A831206867
:10316000884206D12068006820F01C0021680860B1
:1031700005E02068006820F00E002168086094F8DF
:103180005C0000F01F0101208840C8F80400012005
:10319000606584F8350000BF002084F8340000BF6B
:1031A000E06C10B12046E16C884700BF65E5000087
:1031B00010000240100402402DE9F041044601F0E5
:1031C000AFFA804614B90120BDE8F081FE492068BD
:1031D000884249D0FC4918312068884244D0FA49D5
:1031E0003031206888423FD0F74948312068884212
:1031F0003AD0F54960312068884235D0F2497831BB
:103200002068884230D0F0499031206888422BD025
:10321000ED49A8312068884226D0EC4920688842D0
:1032200022D0EA491831206888421DD0E749303160
:103230002068884218D0E54948312068884213D078
:10324000E2496031206888420ED0E0497831206838
:10325000884209D0DD4990312068884204D0DB499A
:10326000A8312068884201D1012000E00020002818
:1032700073D0606A00B100BF022084F8350000BF3F
:10328000002084F8340000BFCF492068884249D02C
:10329000CD4918312068884244D0CB49303120686C
:1032A00088423FD0C8494831206888423AD0C64950
:1032B00060312068884235D0C3497831206888421F
:1032C00030D0C1499031206888422BD0BE49A83106
:1032D0002068884226D0BD492068884222D0BB4958
:1032E0001831206888421DD0B849303120688842A2
:1032F00018D0B64948312068884213D0B3496031AC
:10330000206888420ED0B14978312068884209D0BF
:10331000AE4990312068884204D0AC49A831206879
:10332000884206D12068006820F00100216808600A
:1033300005E02068006820F00100216808600DE0C9
:1033400001F0EEF9A0EB0800052807D92020606500
:10335000032084F83500012036E769E02068006822
:1033600000F001000028EBD120680568984805406E
:10337000D4E9020108432169084361690843A1694E
:103380000843E1690843216A08430543606A042849
:1033900003D1D4E90B01084305436068292802D30F
:1033A00060682E2817D960683F2802D360684228D9
:1033B00011D96068472802D3606848280BD9606833
:1033C0004F2802D36068522805D96068742804D356
:1033D0006068772801D8012000E0002008B145F49A
:1033E0008015206805602068456925F00705606A3A
:1033F0000543606A04280DD1A06A0543E06A48B11C
:103400002046FEF793F828B140206065012084F83B
:103410003500D9E6206845612046FDF763FF064682
:1034200094F85C0000F01F013F208840B0609EE0EF
:1034300068492068884222D0664914312068884251
:103440001DD0644928312068884218D061493C3138
:103450002068884213D05F495031206888420ED0DE
:103460005C4964312068884209D05A497831206823
:10347000884204D057498C312068884201D101200C
:1034800000E00020E0B353492068884222D051492F
:103490001431206888421DD04E4928312068884266
:1034A00018D04C493C312068884213D049495031EA
:1034B000206888420ED0474964312068884209D08C
:1034C000444978312068884204D042498C312068D0
:1034D000884201D1012000E0002000B100BF02209D
:1034E00084F8350000BF002084F8340000BF206855
:1034F000056839480540A068402802D1102106E03F
:103500002EE0A068802801D1C10100E00021E06820
:1035100041EAD001206941EAD001606941EAD00165
:10352000A06941EAD001E06941EAD001206A41EA9C
:10353000101005432068056026492068401A1421B0
:10354000B0FBF1F08000E0652046FDF7CBFE0746BA
:1035500094F85C0000F01F0101208840786006E0CC
:1035600040206065032084F8350001202CE61649D0
:10357000206888427AD0144918312068884275D072
:10358000114930312068884270D00F494831206895
:1035900088426BD00C4960312068884266D00A4965
:1035A00078312068884261D007499031206888428C
:1035B0005CD00549A8312068884257D0034920686B
:1035C000884253D0014909E0100002401004024033
:1035D0003F8010FE085402580F00FEFF183120688B
:1035E000884243D03749206888423FD03549183156
:1035F000206888423AD0334930312068884235D03B
:10360000304948312068884230D02E4960312068E6
:1036100088422BD02B4978312068884226D02A490D
:103620002068884222D028491431206888421DD061
:10363000254928312068884218D023493C31206828
:10364000884213D020495031206888420ED01E494C
:1036500064312068884209D01B497831206888424B
:1036600004D019498C312068884201D1012000E042
:10367000002000B32046FDF7ABFEA068802801D1F2
:10368000002060602079216E0860D4E9191048603C
:10369000606860B16068082809D82046FDF7FAFE26
:1036A0000020E16E0860D4E91C10486003E00020AF
:1036B000E0662067606700206065012084F83500BF
:1036C000002081E5400402400854025870B50446C9
:1036D00001F026F806462546681C10B1044800781B
:1036E000054400BF01F01CF8801BA842FAD370BD4E
:1036F0001800002430B5034693F89840012C01D0FF
:10370000022C3ED11868806D084030B91868C06D31
:1037100040F001001D68E8650EE01868806D084003
:10372000884206D11868C06D40F002001D68E86547
:1037300002E003201D68E86501F4007030B11868EC
:10374000D0F8E00010431D68C5F8E00001F4806087
:1037500030B11868D0F8E40010431D68C5F8E400E3
:1037600000BF1868406D0B4D0D4028431D6868650B
:103770000948006840EA9170074D286000BF0020AA
:1037800030BDD3F89C0040F00200C3F89C0001203B
:10379000F6E70000FFFFCF3F14A800402DE9F041FD
:1037A00004460E461746706800B900E000BF94F862
:1037B0009800022832D12068D0F8C00000F07C5078
:1037C00040B9D4F89C0040F02000C4F89C000120CF
:1037D000BDE8F0812068D0F8C40000F4001038B1D2
:1037E000D4F89C0040F40070C4F89C000120EFE77E
:1037F0002068D0F8C400C0F304452B463A46314651
:103800002046FEF7C9F80120A8402168C1F8D00081
:103810000120A840C4F894000020D9E7D4F89C0007
:1038200040F00800C4F89C000120D1E7704710B5B3
:10383000034601B900E000BF93F89800012824D1A5
:1038400051B91868D0F8F00020F07C5040EA0260CE
:103850001C68C4F8F00016E001290AD11868D0F8F5
:10386000A00020F0FE4040EA02601C68C4F8A000FE
:1038700009E01868D0F8B00020F0FE4040EA02608D
:103880001C68C4F8B000002010BDD3F89C0040F0C4
:103890000400C3F89C000120F6E7F0B5024692F858
:1038A0009860012E01D0022E43D1C868072800D1AC
:1038B00000BF086818BBC868072800D000BFC868E8
:1038C00007280BD1088A4FF0605747EA0040CF69BC
:1038D00040EA07208F6940EA07040AE0087A800777
:1038E0000F7B40EAC7600F8A40EA07404F6940EA11
:1038F0000704D76E486807EB80031C6017E0C868B0
:10390000072800D000BF0F7B086940EA4774C868E9
:10391000072801D18D6903E00F7A486940EA87756D
:10392000176F486807EBC0031C601B1D1D6000205B
:10393000F0BDD2F89C0040F00200C2F89C000120CB
:10394000F6E770B50446049D94F8980001280AD162
:10395000080140EA820040EA430028432668C6F88E
:103960008000002070BDD4F89C0040F00400C4F832
:103970009C000120F6E77047704700002DE9F043F6
:1039800004460D469C46002394F89880B8F1020F37
:1039900074D1402D38D12068D0F8A00000F4FE008A
:1039A00040B9D4F89C0040F02000C4F89C000120ED
:1039B000BDE8F0832068D0F8A40000F07F0038B99B
:1039C000D4F89C0040F48070C4F89C000120EFE71C
:1039D0002068D0F8A400C0F3006040B12068D0F89F
:1039E000A0004FF00109B9EBD07F00D1012320687E
:1039F000D0F8A400C0F305200344606C5843D4F809
:103A0000749009EB80014BE0412D38D12068D0F84B
:103A1000B00000F4FE0038B9D4F89C0040F020005B
:103A2000C4F89C000120C3E72068D0F8B40000F07F
:103A30007F0038B9D4F89C0040F48070C4F89C0032
:103A40000120B5E72068D0F8B400C0F3006040B1B1
:103A50002068D0F8B0004FF00109B9EBD07F00D159
:103A600001232068D0F8B400C0F305200344E06CC3
:103A70005843D4F8789009EB800111E06DE0206D97
:103A8000A84207D8D4F89C0040F02000C4F89C005D
:103A900001208DE7606D6843D4F87C9009EB8001CC
:103AA000086800F080405060506820B90868C0F392
:103AB0008A40106003E0086820F0604010600868E9
:103AC00000F000509060086800F000401061091D8F
:103AD000088880B2D0610868C0F30340D0600868ED
:103AE00000F480105061086800F4001090610868CC
:103AF000C0F3066010620868C00F5062091D0F46CF
:103B0000002603E0B85D0CF80600761CDFF85C9038
:103B1000D06819F80000B042F4D8402D03D12068D5
:103B2000C0F8A83017E0412D03D12068C0F8B830A4
:103B300011E0202D06D20120A840D4F80090C9F849
:103B4000980008E005F01F09012000FA09F0D4F8F8
:103B50000090C9F89C0000202AE7D4F89C0040F0AF
:103B60000800C4F89C00012022E70000FC72010854
:103B7000704700002DE9F04F8DB00446EF48006813
:103B80008707EE48001D006807EA80772068006D0F
:103B900000F470482068406D00EA08082068006D55
:103BA00000F00F092068406D00EA09092068006DE7
:103BB00000F0F00A2068406D00EA0A0A2068006DF3
:103BC00000F0715B2068406D00EA0B0B2068006D0F
:103BD00000F060700C902068406D0C9908400C90CB
:103BE0002068456D2068066DC5F3002070B1C6F3EE
:103BF000002058B100BF4FF4807021680865002094
:103C0000CE49086000BF2046FFF7B2FFC5F3802011
:103C1000C8B1C6F38020B0B12068D0F8DC000A90AB
:103C20002068D0F8E4000A9908400A9000BF4FF4D9
:103C30008060216808650020C049086000BF2046F8
:103C40000A9900F04CFC67B100BFBD4838402168BC
:103C50000865B80FB949086000BF39462046FFF72C
:103C6000E5FDB8F1000F0ED000BFB54808EA00002E
:103C7000216808654FEA9870B049086000BF414666
:103C8000204600F02EFCB9F1000F0ED000BFAC486A
:103C900009EA0000216808654FEA9970A7490860A1
:103CA00000BF4946204600F0DFFBBAF1000F0ED0FE
:103CB00000BFA3480AEA0000216808654FEA9A702D
:103CC0009E49086000BF5146204600F0E7FBC5F35F
:103CD000C02070B1C6F3C02058B100BF4FF40060DF
:103CE0002168086500209549086000BF204600F063
:103CF000F9FBC5F34020C8B1C6F34020B0B120683D
:103D0000D0F8D8000B902068D0F8E0000B9908405C
:103D10000B9000BF4FF400702168086500208749B0
:103D2000086000BF20460B9900F0DAFBC5F3C040E5
:103D300070B1C6F3C04058B100BF4FF400202168F5
:103D4000086500207D49086000BF204600F08AFB1E
:103D5000C5F3004070B1C6F3004058B100BF4FF446
:103D600080302168086500207449086000BF204643
:103D700000F0B4FBC5F3804070B1C6F3804058B189
:103D800000BF4FF480202168086500206B4908605F
:103D900000BF204600F0A1FBC5F3404088B1C6F348
:103DA000404070B100BF4FF400302168086500202A
:103DB0006249086000BFD4F89C0040F08000C4F85D
:103DC0009C000C9870B100BF5D490C9808402168B8
:103DD00008650C98800F5949086000BF20460C996F
:103DE000FFF7CAFDBBF1000F10D000BF54480BEA2B
:103DF0000000216808654FEA9B705049086000BFC9
:103E0000D4F89C0040EA0B00C4F89C004D4920689F
:103E100088427DD16068806800F00300002877D078
:103E20006068006A00F00F0009906068406A0999B4
:103E3000084009906068006A00F0300008906068EF
:103E4000406A0899084008906068006A00F4C070F1
:103E500007906068406A0799084007906068006AA8
:103E600000F4FC4006906068406A0699084006909D
:103E70006068006A00F4F02005906068406A059967
:103E8000084005906068406A02906068006A01908E
:103E9000099830B10998616808622046099900F0D4
:103EA00019FB089830B108986168086220460899A3
:103EB00000F012FB0298C0F38010A0B10198C0F38B
:103EC000801080B16068C06B000C04906068C06BAB
:103ED00000F03F0003904020616808622046DDE961
:103EE000032100F0F8FA079830B10798616808627A
:103EF0002046079900F0EDFA069840B106986168EF
:103F00000862D4F89C0006990843C4F89C0000E0BD
:103F10000AE0059840B1059861680862D4F89C00F1
:103F200005990843C4F89C00D4F89C0010B12046C1
:103F3000FFF721FD0DB0BDE8F08F000010A8004094
:103F4000FFFFCF3F00A0004070B594B004464C2264
:103F5000B34901A8FCF775FB14B9012014B070BD7A
:103F6000B0492068884203D1206800F58070606005
:103F7000A068B0F5407F00D100BF206C00B100BF49
:103F8000A06C00B100BF206D00B100BF206E00B179
:103F900000BFD4E91710084400B100BF94F898009E
:103FA00028B9002084F89900204600F03DF92068E7
:103FB000806920F010002168886100F0B1FB05469F
:103FC0000EE000F0ADFB401B0A2809D99834606868
:103FD00040F001006060032004F898090120BDE76B
:103FE0002068806900F008000828EAD0206880690D
:103FF00040F001002168886100F092FB05460EE068
:1040000000F08EFB401B0A2809D99834606840F004
:1040100001006060032004F8980901209EE72068F1
:10402000806900F001000028EAD02068806940F033
:10403000020021688861207C012806D120688069FF
:1040400020F040002168886105E02068806940F028
:10405000400021688861607C012806D12068806961
:1040600040F480402168886105E02068806920F480
:10407000804021688861A07C012806D12068806981
:1040800020F480502168886105E02068806940F450
:104090008050216888612068806920F44070A168A0
:1040A0000843216888612068806920F0A4002168A5
:1040B00088612068006920F0100021680861E068CC
:1040C000012806D12068806940F0040021688861D9
:1040D00020E0E068F0B1E068022815D0206880692F
:1040E00040F08000216888612068006940F010007D
:1040F00021680861E06803280CD12068806940F0DD
:1041000020002168886105E02068806940F0200077
:1041100021688861207E401E4106E069401E41EA18
:104120000020216A491E0843A18A491E40EA014035
:104130002168C861A068B0F5407F0FD1A06A401E19
:10414000E16A491E40EA0121206B401E41EA00114C
:10415000A08C401E41EA00402168C860206E38B142
:104160002068D0F8C000616E08432168C1F8C00023
:10417000D4E91710084460B12068D0F8C80020F0D6
:10418000070001AAA16E52F8211008432168C1F866
:10419000C800206C60B12068D0F8BC0020F0070097
:1041A00001AA616C52F8211008432168C1F8BC00D3
:1041B000A06C68B12068D0F8BC0020F0700101AAA2
:1041C000E06C52F8200041EA00102168C1F8BC0000
:1041D000206D68B12068D0F8BC0020F4E06101AA2D
:1041E000606D52F8200041EA00202168C1F8BC004F
:1041F0000C492068884205D16068806820F003007F
:1042000061688860002044F8940FA060012020714C
:10421000943C2046FDF7B0FA064630469EE6000084
:104220000C73010800A0004010B5B6B0044614217C
:1042300030A8FCF738FAB82102A8FCF734FA824912
:104240002068884251D14FF400410020CDE902108E
:1042500048031D9002A801F0AFFC08B1FDF759FA20
:104260007A480068401C79490860084600680128BF
:104270000DD100BF7648006840F480707449086032
:104280000846006800F48070019000BF00BF00BFC6
:104290006F480C38006840F008006D490C39086020
:1042A0000846006800F00800019000BF00BF03202E
:1042B00030900220319000203290339009203490C9
:1042C00030A9644800F02EF900221146132000F0B6
:1042D000BBFA132000F0A4FA00221146152000F0CA
:1042E000B3FA152000F09CFAABE05B4920688842E5
:1042F00051D14FF400410020CDE9021048031D9038
:1043000002A801F059FC08B1FDF703FA4F48006814
:10431000401C4E4908600846006801280DD100BFC6
:104320004B48006840F480704949086008460068BE
:1043300000F48070019000BF00BF00BF44480C38FB
:10434000006840F0020042490C39086008460068E5
:1043500000F00200019000BF00BF602030900220FA
:1043600031900020329033900920349030A93B489E
:1043700000F0D8F800221146142000F065FA14204D
:1043800000F04EFA00221146162000F05DFA1620C9
:1043900000F046FA55E032492068884251D14FF486
:1043A00000410020CDE9021048031D9002A801F051
:1043B00003FC08B1FDF7ADF924480068401C23490F
:1043C00008600846006801280DD100BF2048006839
:1043D00040F480701E4908600846006800F4807050
:1043E000019000BF00BF00BF19480C38006840F0C2
:1043F000080017490C3908600846006800F00800FA
:10440000019000BF00BF4FF4405030900220319027
:104410000020329033900520349030A90D4800F0F0
:1044200081F8002211469F2000F00EFA9F2000F034
:10443000F7F900221146A02000F006FAA02000F0B3
:10444000EFF936B010BD000000A0004000000020D1
:10445000EC440258000C025800A40040000402582A
:1044600000D400407047000070B504460D4608486F
:10447000844201D10DF08AFF0648844201D10DF03B
:10448000DBFF0548844201D10DF0F8FF70BD00004C
:10449000D005002470060024100700247047014650
:1044A00091F8980001280CD1022081F89800086842
:1044B000806920F001000A6890610020C1F89C002A
:1044C0007047D1F89C0040F00400C1F89C00012026
:1044D000F6E77047704770477047704770477047FE
:1044E000704770477047000005490978012906D1D7
:1044F000B0F5806F02D1034A117000E000BF704731
:10450000C9000024C800002410B50446044800680F
:10451000204020B1024804602046FFF7E5FF10BDAF
:1045200088000058F8B502460B4600216D4DD2E0D8
:1045300001278F401E6806EA0704002C72D01E79FE
:1045400006F00306012E04D01E7906F00306022EA3
:1045500013D190684F000326BE40B0434F00DE6881
:10456000BE4030439060506801268E40B0431E79B3
:10457000C6F300168E40304350601E7906F00306E5
:10458000032E09D0D0684F000326BE40B0434F0031
:104590009E68BE403043D0601E7906F00306022EAE
:1045A00013D1CF0802F1200656F827004E07F70E68
:1045B0000F26BE40B0434F07FF0E1E69BE4030437A
:1045C000CF0802F1200646F8270010684F000326A6
:1045D000BE40B0431E7906F003064F00BE40304394
:1045E00010605E6806F44036002E73D000BF3E4E69
:1045F000366846F002063C4F3E603E46366806F09E
:104600000206009600BF00BF384E8F0856F82700FC
:104610008E07370F0F26BE40B043354EB24202D14F
:10462000002629E056E0334EB24201D1012623E0B4
:10463000314EB24201D102261EE0304EB24201D1CB
:10464000032619E02E4EB24201D1042614E02D4E6D
:10465000B24201D105260FE02B4EB24201D106260F
:104660000AE02A4EB24201D1072605E0284EB242A6
:1046700001D1092600E00A268F073F0FBE403043D4
:104680001A4E8F0846F827004FF0B0463068A04316
:104690005E6806F4801606B120434FF0B0463060E5
:1046A0007068A0435E6806F4001606B120434FF020
:1046B000B04670606868A0435E6806F4003606B1D4
:1046C000204368602868A0435E6806F4803606B11F
:1046D00020432860491C1E68CE40002E7FF428AF7E
:1046E000F8BD000080000058F44402580804005847
:1046F000000002580004025800080258000C02583A
:10470000001002580014025800180258001C0258E9
:10471000002402580AB1816101E00B0483617047F3
:10472000014800687047000010000024034800683A
:1047300003490978084401490860704710000024C3
:104740001800002410B5032000F0BCF802F072FA43
:1047500010490968C1F303210F4A515C01F01F01A0
:1047600020FA01F40B48006800F00F001146085CC5
:1047700000F01F0024FA00F00849086008480460AF
:104780000F2000F00FF808B1012010BD00F036F83E
:104790000020FAE718440258807301082000002422
:1047A0001C00002470B504461148007808B90120A7
:1047B00070BD0F4800784FF47A71B1FBF0F00D49ED
:1047C0000968B1FBF0F5284603F0F4FA08B10120BE
:1047D000EEE7102C07D200222146501E00F034F8DC
:1047E0000548046001E00120E2E70020E0E7000066
:1047F000180000241C0000241400002408B500BF89
:104800000648006840F00200044908600846006855
:1048100000F00200009000BF00BF08BDF444025841
:104820000146084600280DDB00BF00BF00F01F0353
:1048300001229A4043099B0003F1E023C3F80021C1
:1048400000BF00BF00BF70472DE9F05F80460D46F6
:1048500016460AF023FB074639462A46334601F03E
:104860000700C0F1070ABAF1040F02D94FF0040A99
:1048700001E0C0F1070AD14600F1040ABAF1070FBE
:1048800002D24FF0000A01E0A0F1030AD4464FF033
:10489000010A0AFA09FAAAF1010A0AEA020A0AFA5C
:1048A0000CFA4FF0010B0BFA0CFBABF1010B0BEA0E
:1048B000030B4AEA0B04214640460AF0F7FABDE82A
:1048C000F09F000000BF00F00702064B19684FF68A
:1048D000FF031940044B0B4343EA0221014B1960CB
:1048E00000BF70470CED00E00000FA0501460A68C1
:1048F0000120C1F8D804002081F8CC04906940F070
:1049000000609061506D024B184350650020704765
:104910000300001070470246106841620020704793
:10492000F0B5034615461868446A21B944EA0540C3
:104930001E68B06219E01868806A04EB1044002217
:1049400008E0186800F5827050F8220004EB10446B
:10495000501CC2B2481E9042F3D844EA054718687A
:1049600000F582704E1E40F826700020F0BD10B594
:104970000446D4F8E00408F081FD10BD70B504468B
:104980000D4605EBC50304F1140101EB8301CA6870
:104990002946D4F8E00408F06CFC70BD70B50446FC
:1049A0000D4605EBC50304F5157101EB8301CA68DB
:1049B0002946D4F8E00408F0E0FC70BD10B50446C8
:1049C000D4F8E00408F05DFD10BD2DE9F041044687
:1049D0000D4605F08000802808D105F00F0000EB9F
:1049E000C00104F1140000EB810607E005F00F00A0
:1049F00000EBC00104F5157000EB8106314620681C
:104A000009F08EFF07463846BDE8F08170B50446D0
:104A10000E4606F0800080280AD106F00F0000EB59
:104A2000C00104F1140000EB81050120687009E069
:104A300006F00F0000EBC00104F5157000EB8105D6
:104A40000020687006F00F00287000BF94F89404EE
:104A5000012801D1022070BD012084F8940400BF18
:104A60002946206809F0F4FA00BF002084F8940475
:104A700000BF00BFEFE770B504460E4606F00F001A
:104A80002179884201D9012070BD06F0800080287C
:104A90000AD106F00F0000EBC00104F1140000EB96
:104AA00081050120687009E006F00F0000EBC001ED
:104AB00004F5157000EB8105002068700020A870D7
:104AC00006F00F00287000BF94F89404012801D16B
:104AD0000220D9E7012084F8940400BF2946206809
:104AE00009F0B0FC00BF002084F8940400BF00BFB0
:104AF000CAE7024601F00F0000EBC00302F5157093
:104B000000EB8300406970472DE9F04705460E46EB
:104B100090461F464FF0000906F0800080280AD119
:104B200006F00F0000EBC00105F1140000EB81045A
:104B30000120607009E006F00F0000EBC00105F5F0
:104B4000157000EB81040020607006F00F002070EB
:104B5000C4F808802771607808B120786083022F3C
:104B600001D10020607100BF95F89404012802D1A2
:104B70000220BDE8F087012085F8940400BF21469B
:104B8000286809F06FF900BF002085F8940400BF81
:104B90004846EEE72DE9F04105460E461746984691
:104BA00006F00F0000EBC00105F5157000EB810465
:104BB000E760C4F8108000206061607006F00F00AC
:104BC0002070A879012800D1E761AA7921462868D8
:104BD00009F0CCFC0020BDE8F08170B504460D461C
:104BE00005F00F002179884201D9012070BD05F040
:104BF000800080280AD105F00F0000EBC00104F10D
:104C0000140000EB81060120707007E005EBC50180
:104C100004F5157000EB8106002070700120B07063
:104C200005F00F00307000BF94F89404012801D102
:104C30000220DBE7012084F8940400BF314620689D
:104C400009F047FC05F00F0028B9A17904F29C4255
:104C5000206809F0BFFB00BF002084F8940400BF67
:104C600000BFC3E72DE9F04105460E4617469846BA
:104C700006F00F0000EBC00105F1140000EB810409
:104C8000E760C4F81080002060610120607006F0C9
:104C90000F002070A879012800D1E761AA79214688
:104CA000286809F063FC0020BDE8F0812DE9FE4F83
:104CB0000446D4F800B05E46206809F013FF0028CF
:104CC00074D1206809F04DFF08B9BDE8FE8F40F6A9
:104CD00008008059C0F30D20C4F8D404206809F0FE
:104CE00040FF00F00200022805D12068406900F072
:104CF000020021684861206809F033FF00F01000CD
:104D0000102845D12068806920F010002168886152
:104D1000DBF8209009F00F0000EBC00104F51570DE
:104D200000EB810AC9F3434002281AD147F6F0701C
:104D300009EA000030B3C9F30A125846DAF80C1039
:104D400009F014FFC9F30A11DAF80C000844CAF894
:104D50000C00C9F30A11DAF814000844CAF8140068
:104D600010E0C9F3434006280CD1082204F29C410C
:104D7000584609F0FBFEC9F30A11DAF8140008449A
:104D8000CAF814002068806940F01000216888612A
:104D9000206809F0E6FE00F40020B0F5002F7BD17A
:104DA0000025206809F0ADFE029072E003E302984E
:104DB00000F00100002868D0E9B2206809F0C4FEC4
:104DC000804608F0010048B1012106F5306000EB93
:104DD000451081602946204605F0CCF808F008000F
:104DE000082809D1082106F5306000EB45108160E4
:104DF0002946204605F08CF808F01000102805D14F
:104E0000102106F5306000EB4510816008F00200CB
:104E1000022824D1DBF8140000F08000802807D19C
:104E200040F60400805940F4806140F6040081514E
:104E300005EBC50104F5157000EB810A9AF8030033
:104E4000012806D100208AF80300E9B2204600F0CC
:104E5000BDFA022106F5306000EB4510816008F0D4
:104E60002000202805D1202106F5306000EB4510F8
:104E7000816008F40050B0F5005F06D14FF4005196
:104E800006F5306000EB451081606D1C029840080B
:104E90000290029800288AD1206809F062FE00F48E
:104EA0008020B0F5802F7DD1206809F020FE02908F
:104EB00000259AE0029800F00100002873D0E9B2C2
:104EC000206809F028FE804608F00100F0B305F0E4
:104ED0000F0101208840019040F63400815901986B
:104EE00021EA000040F634018851012106F51060E6
:104EF00000EB45108160A079012824D105EBC501A4
:104F000004F1140000EB810005EBC502C16804F157
:104F1000140000EB82008068014405EBC50204F137
:104F2000140000EB8200C1606DB905EBC50104F10E
:104F3000140000EB8100006928B904F29C420121B1
:104F4000206809F047FAE9B2204600E001E0FFF7E7
:104F500015FD08F00800082805D1082106F51060A5
:104F600000EB4510816008F01000102805D11021D9
:104F700006F5106000EB4510816008F04000402805
:104F800005D1402106F5106000EB4510816008F066
:104F9000020002281DD12946584609F066FD05EB9E
:104FA000C50101E025E01CE004F1140000EB810ADA
:104FB0009AF80300012806D100208AF80300E9B21C
:104FC000204600F0FAF9022106F5106000EB4510CA
:104FD000816008F08000802803D12946204605F032
:104FE0006BF86D1C029840080290029800287FF42C
:104FF00061AF206809F0B5FD00F00040B0F1004F4E
:105000001CD140F60400805920F0010140F6040054
:10501000815194F8CC04012807D1002084F8CC04F5
:1050200000212046FFF776FC02E0204600F0D6FA89
:105030002068406900F0004021684861206809F05C
:1050400090FD00F40060B0F5006F0ED140F608004E
:10505000805900F0010010B1204600F017FB2068D5
:10506000406900F4006021684861206809F079FD1A
:1050700000F00060B0F1006F19D12068406900F0C5
:1050800000602168486194F8CC0468B9012084F874
:10509000CC042068406DC0F38300C4F8D004012123
:1050A0002046FFF737FC02E0204600F0EFFA2068C8
:1050B00009F057FD00F48050B0F5805F7ED140F6D6
:1050C0000400805920F0010140F6040081511021B4
:1050D000206809F0CAFC002732E04FF67F3106F560
:1050E000106000EB4710816006F5106000EB471080
:1050F000006820F4001106F5106000EB4710016015
:105100004FF67F3106F5306000EB4710816006F501
:10511000306000EB4710006820F4001106F53060A5
:1051200000EB4710016006F5306000EB47100068A7
:1051300040F0006106F5306000EB471001607F1C15
:105140002079B842C9D840F61C00805940F00111BE
:1051500040F61C008151E07B70B1D6F8840840F025
:105160000B01C6F8841840F64400805940F00B014A
:1051700040F6440081510FE040F61400805942F29D
:105180002B01084340F614018851081F805940F054
:105190000B014FF401608151D6F8000820F4FE6045
:1051A000C6F80008A17904F29C42206809F012F9BF
:1051B0002068406900F48050216800E000E0486108
:1051C000206809F0CEFC00F40050B0F5005F17D164
:1051D000206808F0AFFE206809F071FCE07101F072
:1051E000DFFC0090E2792068009909F041FD20463B
:1051F00000F0DCF92068406900F400502168486143
:10520000206809F0AEFC00F00800082808D120460C
:1052100000F0EBF92068406900F00800216848615F
:10522000206809F09EFC00F08000802818D1DBF88F
:10523000180020F08000CBF8180001250DE005EBE8
:10524000C50104F5157000EB8100C078012803D179
:10525000E9B22046FFF7B9FB6D1C2079A842EED8D1
:10526000206809F07EFC00F48010B0F5801F2DD17D
:10527000012522E006F5106000EB4510D0F8009003
:1052800005EBC50104F1140000EB81000079012851
:1052900012D109F00040B0F1004F0DD1012105EB12
:1052A000C50204F1140000EB8200C170E8B240F0C6
:1052B00080012046FFF789FB6D1C2079A842D9D8D0
:1052C0002068406900F4801021684861206809F076
:1052D00048FC00F40010B0F5001F44D1012538E06F
:1052E00006F5306000EB4510D0F8009005EBC501E5
:1052F00004F5157000EB81000079012828D109F030
:105300000040B0F1004F23D109F4803094F8D41458
:1053100001F0010188421BD1012105EBC50204F512
:10532000157000EB8200C170DBF8180040F08000BF
:10533000CBF81800DBF8140000F0800040B940F60C
:105340000400805940F4007140F60400815103E0EC
:105350006D1C2079A842C3D800BF2068406900F4C2
:10536000001021684861206809F0FBFB00F08040D4
:10537000B0F1804F08D12046FFF7F9FA2068406964
:1053800000F0804021684861206809F0EAFB00F0E5
:10539000040004280FD12068D0F8049009F004001C
:1053A000042802D12046FFF709FB2068406840EA44
:1053B00009002168486000BF87E470B504460D46C7
:1053C0002946D4F8E00408F0CDF870BD70B5044665
:1053D0000D462946D4F8E00408F0E8F870BD38B569
:1053E00004460CB9012038BD94F8950428B9002072
:1053F00084F89404204600F0A1F8032084F8950472
:10540000206808F0DFFF207C8DF8000094E80F0092
:1054100008F0A4FD20B1022084F895040120E2E701
:105420000021206809F0D2FB20B1022084F8950405
:105430000120D8E7002531E0012105EBC50204F188
:10544000140000EB8200417005EBC50104F114006B
:1054500000F8215005EBC50100EB810045830021D8
:1054600005EBC50204F1140000EB8200017105EBAD
:10547000C50204F1140000EB8200816005EBC50257
:1054800004F1140000EB8200C16005EBC50204F1D9
:10549000140000EB82000161681CC5B22079A842AB
:1054A000CADC00252AE0002105EBC50204F51570D1
:1054B00000EB8200417005EBC50104F5157000F8A2
:1054C0002150002105EBC50200EB8200017105EBC4
:1054D000C50204F5157000EB8200816005EBC50282
:1054E00004F5157000EB8200C16005EBC50204F500
:1054F000157000EB82000161681CC5B22079A842DA
:10550000D1DC207C8DF8000094E80F0008F06AFEE2
:1055100020B1022084F89504012064E70020607423
:10552000012084F89504207B012802D12046FFF752
:10553000DDF9206808F044FE002054E710B5B0B053
:105540000446B82102A8FBF7AEF816492068884245
:1055500025D14FF480210020CDE902104FF44010F6
:10556000239002A800F028FB08B1FCF7D2F800F065
:10557000D7F800BF0C48006840F000700A49086086
:105580000846006800F00070019000BF00BF0022D4
:1055900011464D20FFF758F94D20FFF741F930B083
:1055A00010BD000000000440D844025870B5044605
:1055B0000125E07908B9002506E0E079022801D14B
:1055C000012501E0FCF7A5F82946D4F8E00408F02D
:1055D00096F8D4F8E00408F03DF870BD10B5044624
:1055E000D4F8E00408F06CF810BD10B50446D4F807
:1055F000E00408F070F810BD70B504460D4600BF19
:1056000094F89404012801D1022070BD012084F88F
:10561000940400BF65742946206809F00BFB00BFA5
:10562000002084F8940400BF00BFEEE710B50446E4
:1056300004F29C41D4F8E00408F078F810BD70B58D
:105640000446256800BF94F89404012801D1022083
:1056500070BD012084F8940400BFE86800F04000A9
:1056600030B1607B012803D1A86B40F48030A8637F
:10567000206809F0CBF9206808F090FD00BF0020F9
:1056800084F8940400BF00BFE2E7000010B50446B0
:10569000D4F8E00408F0A7F82068D0F8000E40F035
:1056A00001002168C1F8000EE07A28B103480068C3
:1056B00040F006000149086010BD000010ED00E058
:1056C00070B5044615480068C0F3800048B9134817
:1056D000006800F00700A04201D0012070BD00204A
:1056E000FCE70E48006820F0070020430B490860E3
:1056F000FFF716F8054607E0FFF712F8401BB0F574
:105700007A7F01D90120E9E7044808380068C0F32E
:1057100040300028F0D00020E0E700000C4802589C
:105720000348006840F0807001490860704700003D
:105730000C48025810B501F033FA05490968C1F365
:105740000211044A515C01F01F01C84010BD000065
:10575000204402588073010870B50146844D2D68BD
:1057600005F00303824D2D68C5F30530804D2D1DD6
:105770002D68C5F300147E4D14352D68C5F3CC0596
:1057800015FB04F501EE105AB8EE411AF0EE410A8D
:1057900000286FD023B1012B4ED0022B6BD16BE0D0
:1057A000734D283D2D68C5F340153DB3704D283D20
:1057B0002D68C5F3C1066F4D25FA06F201EE102AD9
:1057C000F8EE411A01EE100AB8EE411A81EE812A74
:1057D0009FED691AC0EE811A654D10352D68C5F32D
:1057E000080501EE105AB8EE411A31EE811AF7EEB3
:1057F000001A31EE211A22EE010A1CE001EE100A15
:10580000B8EE411ADFED5D1A81EE812A9FED5A1A3A
:10581000C0EE811A564D10352D68C5F3080501EE0E
:10582000105AB8EE411A31EE811AF7EE001A31EE35
:10583000211A22EE010A5BE001EE100AB8EE411ACD
:10584000DFED4F1A81EE812A9FED4B1AC0EE811ACF
:10585000474D10352D68C5F3080501EE105AB8EE16
:10586000411A31EE811AF7EE001A31EE211A22EEBA
:10587000010A3DE077E01DE001EE100AB8EE411AA2
:105880009FED402AC2EE011A9FED3B1A80EE812A5D
:10589000374D10352D68C5F3080501EE105AB8EEE6
:1058A000411A32EE011AB7EE002A31EE021A21EE49
:1058B000810A1DE001EE100AB8EE411ADFED301A40
:1058C00081EE812A9FED2C1AC0EE811A284D1035E9
:1058D0002D68C5F3080501EE105AB8EE411A31EEF5
:1058E000811AF7EE001A31EE211A22EE010A00BFEA
:1058F00000BF1F4D10352D68C5F3462501EE105A27
:10590000B8EE411AF7EE001A31EE211AC0EE011A74
:10591000BCEEE11A81ED001A154D10352D68C5F366
:10592000064501EE105AB8EE411AF7EE001A31EEB4
:10593000211AC0EE011ABCEEE11A81ED011A0C4DDC
:1059400010352D68C5F3066501EE105AB8EE411A00
:10595000F7EE001A31EE211AC0EE011ABCEEE11A80
:1059600081ED021A03E000250D604D608D6070BD71
:10597000284402580090D003000000460024744CD4
:105980000024744A001BB74B70B50146844D2D6846
:1059900005F00303824D2D68C5F30550804D2D1D84
:1059A0002D68C5F300247E4D1C352D68C5F3CC054C
:1059B00015FB04F501EE105AB8EE411AF0EE410A5B
:1059C00000286FD023B1012B4ED0022B6BD16BE09E
:1059D000734D283D2D68C5F340153DB3704D283DEE
:1059E0002D68C5F3C1066F4D25FA06F201EE102AA7
:1059F000F8EE411A01EE100AB8EE411A81EE812A42
:105A00009FED691AC0EE811A654D18352D68C5F3F2
:105A1000080501EE105AB8EE411A31EE811AF7EE80
:105A2000001A31EE211A22EE010A1CE001EE100AE2
:105A3000B8EE411ADFED5D1A81EE812A9FED5A1A08
:105A4000C0EE811A564D18352D68C5F3080501EED4
:105A5000105AB8EE411A31EE811AF7EE001A31EE03
:105A6000211A22EE010A5BE001EE100AB8EE411A9B
:105A7000DFED4F1A81EE812A9FED4B1AC0EE811A9D
:105A8000474D18352D68C5F3080501EE105AB8EEDC
:105A9000411A31EE811AF7EE001A31EE211A22EE88
:105AA000010A3DE077E01DE001EE100AB8EE411A70
:105AB0009FED402AC2EE011A9FED3B1A80EE812A2B
:105AC000374D18352D68C5F3080501EE105AB8EEAC
:105AD000411A32EE011AB7EE002A31EE021A21EE17
